{
  "_format": "hh-sol-artifact-1",
  "contractName": "DocumentAdministratif",
  "sourceName": "contracts/DocumentAdministratif.sol",
  "abi": [
    {
      "anonymous": false,
      "inputs": [
        {
          "indexed": true,
          "internalType": "string",
          "name": "hashEncoded",
          "type": "string"
        },
        {
          "indexed": false,
          "internalType": "uint256",
          "name": "timestamp",
          "type": "uint256"
        }
      ],
      "name": "DocumentStored",
      "type": "event"
    },
    {
      "inputs": [
        {
          "internalType": "string",
          "name": "_hashEncoded",
          "type": "string"
        }
      ],
      "name": "getAdministrativeDocument",
      "outputs": [
        {
          "internalType": "string",
          "name": "",
          "type": "string"
        },
        {
          "internalType": "string",
          "name": "",
          "type": "string"
        },
        {
          "internalType": "string",
          "name": "",
          "type": "string"
        },
        {
          "internalType": "uint256",
          "name": "",
          "type": "uint256"
        }
      ],
      "stateMutability": "view",
      "type": "function"
    },
    {
      "inputs": [
        {
          "internalType": "string",
          "name": "_hashEncoded",
          "type": "string"
        },
        {
          "internalType": "string",
          "name": "_signedHashEncoded",
          "type": "string"
        },
        {
          "internalType": "string",
          "name": "_publicKeyEncoded",
          "type": "string"
        }
      ],
      "name": "storeAdministrativeDocument",
      "outputs": [],
      "stateMutability": "nonpayable",
      "type": "function"
    }
  ],
  "bytecode": "0x6080604052348015600f57600080fd5b50610c418061001f6000396000f3fe608060405234801561001057600080fd5b50600436106100365760003560e01c80632c770cae1461003b578063839858a81461006e575b600080fd5b610055600480360381019061005091906105b9565b61008a565b604051610065949392919061069a565b60405180910390f35b610088600480360381019061008391906106f4565b610310565b005b60608060606000806000866040516100a291906107d7565b908152602001604051809103902060000180546100be9061081d565b905003610100576040517f08c379a00000000000000000000000000000000000000000000000000000000081526004016100f7906108c0565b60405180910390fd5b6000808660405161011191906107d7565b908152602001604051809103902060405180608001604052908160008201805461013a9061081d565b80601f01602080910402602001604051908101604052809291908181526020018280546101669061081d565b80156101b35780601f10610188576101008083540402835291602001916101b3565b820191906000526020600020905b81548152906001019060200180831161019657829003601f168201915b505050505081526020016001820180546101cc9061081d565b80601f01602080910402602001604051908101604052809291908181526020018280546101f89061081d565b80156102455780601f1061021a57610100808354040283529160200191610245565b820191906000526020600020905b81548152906001019060200180831161022857829003601f168201915b5050505050815260200160028201805461025e9061081d565b80601f016020809104026020016040519081016040528092919081815260200182805461028a9061081d565b80156102d75780601f106102ac576101008083540402835291602001916102d7565b820191906000526020600020905b8154815290600101906020018083116102ba57829003601f168201915b50505050508152602001600382015481525050905080600001518160200151826040015183606001519450945094509450509193509193565b6000808460405161032191906107d7565b9081526020016040518091039020600001805461033d9061081d565b90501461037f576040517f08c379a000000000000000000000000000000000000000000000000000000000815260040161037690610952565b60405180910390fd5b6040518060800160405280848152602001838152602001828152602001428152506000846040516103b091906107d7565b908152602001604051809103902060008201518160000190816103d39190610b1e565b5060208201518160010190816103e99190610b1e565b5060408201518160020190816103ff9190610b1e565b50606082015181600301559050508260405161041b91906107d7565b60405180910390207f44ab0210124eba3e46435e6d22f0c8c47155b6ce9c8c83467cf67d1f77994d41426040516104529190610bf0565b60405180910390a2505050565b6000604051905090565b600080fd5b600080fd5b600080fd5b600080fd5b6000601f19601f8301169050919050565b7f4e487b7100000000000000000000000000000000000000000000000000000000600052604160045260246000fd5b6104c68261047d565b810181811067ffffffffffffffff821117156104e5576104e461048e565b5b80604052505050565b60006104f861045f565b905061050482826104bd565b919050565b600067ffffffffffffffff8211156105245761052361048e565b5b61052d8261047d565b9050602081019050919050565b82818337600083830152505050565b600061055c61055784610509565b6104ee565b90508281526020810184848401111561057857610577610478565b5b61058384828561053a565b509392505050565b600082601f8301126105a05761059f610473565b5b81356105b0848260208601610549565b91505092915050565b6000602082840312156105cf576105ce610469565b5b600082013567ffffffffffffffff8111156105ed576105ec61046e565b5b6105f98482850161058b565b91505092915050565b600081519050919050565b600082825260208201905092915050565b60005b8381101561063c578082015181840152602081019050610621565b60008484015250505050565b600061065382610602565b61065d818561060d565b935061066d81856020860161061e565b6106768161047d565b840191505092915050565b6000819050919050565b61069481610681565b82525050565b600060808201905081810360008301526106b48187610648565b905081810360208301526106c88186610648565b905081810360408301526106dc8185610648565b90506106eb606083018461068b565b95945050505050565b60008060006060848603121561070d5761070c610469565b5b600084013567ffffffffffffffff81111561072b5761072a61046e565b5b6107378682870161058b565b935050602084013567ffffffffffffffff8111156107585761075761046e565b5b6107648682870161058b565b925050604084013567ffffffffffffffff8111156107855761078461046e565b5b6107918682870161058b565b9150509250925092565b600081905092915050565b60006107b182610602565b6107bb818561079b565b93506107cb81856020860161061e565b80840191505092915050565b60006107e382846107a6565b915081905092915050565b7f4e487b7100000000000000000000000000000000000000000000000000000000600052602260045260246000fd5b6000600282049050600182168061083557607f821691505b602082108103610848576108476107ee565b5b50919050565b7f436520646f63756d656e74206e27657869737465207061732064616e73206c6160008201527f20626c6f636b636861696e2e0000000000000000000000000000000000000000602082015250565b60006108aa602c8361060d565b91506108b58261084e565b604082019050919050565b600060208201905081810360008301526108d98161089d565b9050919050565b7f436520646f63756d656e74206578697374652064656a612064616e73206c612060008201527f626c6f636b636861696e2e000000000000000000000000000000000000000000602082015250565b600061093c602b8361060d565b9150610947826108e0565b604082019050919050565b6000602082019050818103600083015261096b8161092f565b9050919050565b60008190508160005260206000209050919050565b60006020601f8301049050919050565b600082821b905092915050565b6000600883026109d47fffffffffffffffffffffffffffffffffffffffffffffffffffffffffffffffff82610997565b6109de8683610997565b95508019841693508086168417925050509392505050565b6000819050919050565b6000610a1b610a16610a1184610681565b6109f6565b610681565b9050919050565b6000819050919050565b610a3583610a00565b610a49610a4182610a22565b8484546109a4565b825550505050565b600090565b610a5e610a51565b610a69818484610a2c565b505050565b5b81811015610a8d57610a82600082610a56565b600181019050610a6f565b5050565b601f821115610ad257610aa381610972565b610aac84610987565b81016020851015610abb578190505b610acf610ac785610987565b830182610a6e565b50505b505050565b600082821c905092915050565b6000610af560001984600802610ad7565b1980831691505092915050565b6000610b0e8383610ae4565b9150826002028217905092915050565b610b2782610602565b67ffffffffffffffff811115610b4057610b3f61048e565b5b610b4a825461081d565b610b55828285610a91565b600060209050601f831160018114610b885760008415610b76578287015190505b610b808582610b02565b865550610be8565b601f198416610b9686610972565b60005b82811015610bbe57848901518255600182019150602085019450602081019050610b99565b86831015610bdb5784890151610bd7601f891682610ae4565b8355505b6001600288020188555050505b505050505050565b6000602082019050610c05600083018461068b565b9291505056fea264697066735822122090c249090976f34bb028f57198163caf05a0272935af7924d4195aa1fff84eb964736f6c634300081c0033",
  "linkReferences": {},
  "deployedLinkReferences": {}
}