{
  "_format": "hh-sol-artifact-1",
  "contractName": "DocumentAdministratif",
  "sourceName": "contracts/DocumentAdministratif.sol",
  "abi": [
    {
      "anonymous": false,
      "inputs": [
        {
          "indexed": true,
          "internalType": "string",
          "name": "hashEncoded",
          "type": "string"
        },
        {
          "indexed": false,
          "internalType": "uint256",
          "name": "timestamp",
          "type": "uint256"
        }
      ],
      "name": "DocumentStored",
      "type": "event"
    },
    {
      "anonymous": false,
      "inputs": [
        {
          "indexed": true,
          "internalType": "string",
          "name": "publicKeyEncoded",
          "type": "string"
        },
        {
          "indexed": false,
          "internalType": "uint256",
          "name": "timestamp",
          "type": "uint256"
        }
      ],
      "name": "KeyRevoked",
      "type": "event"
    },
    {
      "inputs": [
        {
          "internalType": "string",
          "name": "_hashEncoded",
          "type": "string"
        }
      ],
      "name": "getAdministrativeDocument",
      "outputs": [
        {
          "internalType": "string",
          "name": "",
          "type": "string"
        },
        {
          "internalType": "string",
          "name": "",
          "type": "string"
        },
        {
          "internalType": "string",
          "name": "",
          "type": "string"
        },
        {
          "internalType": "uint256",
          "name": "",
          "type": "uint256"
        },
        {
          "internalType": "bool",
          "name": "",
          "type": "bool"
        }
      ],
      "stateMutability": "view",
      "type": "function"
    },
    {
      "inputs": [
        {
          "internalType": "string",
          "name": "_publicKeyEncoded",
          "type": "string"
        }
      ],
      "name": "revokeKey",
      "outputs": [],
      "stateMutability": "nonpayable",
      "type": "function"
    },
    {
      "inputs": [
        {
          "internalType": "string",
          "name": "",
          "type": "string"
        }
      ],
      "name": "revokedPublicKeys",
      "outputs": [
        {
          "internalType": "bool",
          "name": "",
          "type": "bool"
        }
      ],
      "stateMutability": "view",
      "type": "function"
    },
    {
      "inputs": [
        {
          "internalType": "string",
          "name": "_hashEncoded",
          "type": "string"
        },
        {
          "internalType": "string",
          "name": "_signedHashEncoded",
          "type": "string"
        },
        {
          "internalType": "string",
          "name": "_publicKeyEncoded",
          "type": "string"
        }
      ],
      "name": "storeAdministrativeDocument",
      "outputs": [],
      "stateMutability": "nonpayable",
      "type": "function"
    }
  ],
  "bytecode": "0x6080604052348015600f57600080fd5b50610f168061001f6000396000f3fe608060405234801561001057600080fd5b506004361061004c5760003560e01c80632c770cae14610051578063839858a814610085578063e662a301146100a1578063f8e40b85146100d1575b600080fd5b61006b6004803603810190610066919061077f565b6100ed565b60405161007c95949392919061087b565b60405180910390f35b61009f600480360381019061009a91906108e3565b6103ae565b005b6100bb60048036038101906100b6919061077f565b610569565b6040516100c8919061098a565b60405180910390f35b6100eb60048036038101906100e6919061077f565b61059f565b005b60608060606000806000808760405161010691906109e1565b9081526020016040518091039020600001805461012290610a27565b905003610164576040517f08c379a000000000000000000000000000000000000000000000000000000000815260040161015b90610aca565b60405180910390fd5b6000808760405161017591906109e1565b908152602001604051809103902060405180608001604052908160008201805461019e90610a27565b80601f01602080910402602001604051908101604052809291908181526020018280546101ca90610a27565b80156102175780601f106101ec57610100808354040283529160200191610217565b820191906000526020600020905b8154815290600101906020018083116101fa57829003601f168201915b5050505050815260200160018201805461023090610a27565b80601f016020809104026020016040519081016040528092919081815260200182805461025c90610a27565b80156102a95780601f1061027e576101008083540402835291602001916102a9565b820191906000526020600020905b81548152906001019060200180831161028c57829003601f168201915b505050505081526020016002820180546102c290610a27565b80601f01602080910402602001604051908101604052809291908181526020018280546102ee90610a27565b801561033b5780601f106103105761010080835404028352916020019161033b565b820191906000526020600020905b81548152906001019060200180831161031e57829003601f168201915b50505050508152602001600382015481525050905060006001826040015160405161036691906109e1565b908152602001604051809103902060009054906101000a900460ff16905081600001518260200151836040015184606001518496509650965096509650505091939590929450565b6001816040516103be91906109e1565b908152602001604051809103902060009054906101000a900460ff161561041a576040517f08c379a000000000000000000000000000000000000000000000000000000000815260040161041190610b82565b60405180910390fd5b6000808460405161042b91906109e1565b9081526020016040518091039020600001805461044790610a27565b905014610489576040517f08c379a000000000000000000000000000000000000000000000000000000000815260040161048090610c14565b60405180910390fd5b6040518060800160405280848152602001838152602001828152602001428152506000846040516104ba91906109e1565b908152602001604051809103902060008201518160000190816104dd9190610df3565b5060208201518160010190816104f39190610df3565b5060408201518160020190816105099190610df3565b50606082015181600301559050508260405161052591906109e1565b60405180910390207f44ab0210124eba3e46435e6d22f0c8c47155b6ce9c8c83467cf67d1f77994d414260405161055c9190610ec5565b60405180910390a2505050565b6001818051602081018201805184825260208301602085012081835280955050505050506000915054906101000a900460ff1681565b600180826040516105b091906109e1565b908152602001604051809103902060006101000a81548160ff021916908315150217905550806040516105e391906109e1565b60405180910390207ff7afde0e0b87b93ce87703108968a484a59cee3f2bda133c75d7237f31aa3fde4260405161061a9190610ec5565b60405180910390a250565b6000604051905090565b600080fd5b600080fd5b600080fd5b600080fd5b6000601f19601f8301169050919050565b7f4e487b7100000000000000000000000000000000000000000000000000000000600052604160045260246000fd5b61068c82610643565b810181811067ffffffffffffffff821117156106ab576106aa610654565b5b80604052505050565b60006106be610625565b90506106ca8282610683565b919050565b600067ffffffffffffffff8211156106ea576106e9610654565b5b6106f382610643565b9050602081019050919050565b82818337600083830152505050565b600061072261071d846106cf565b6106b4565b90508281526020810184848401111561073e5761073d61063e565b5b610749848285610700565b509392505050565b600082601f83011261076657610765610639565b5b813561077684826020860161070f565b91505092915050565b6000602082840312156107955761079461062f565b5b600082013567ffffffffffffffff8111156107b3576107b2610634565b5b6107bf84828501610751565b91505092915050565b600081519050919050565b600082825260208201905092915050565b60005b838110156108025780820151818401526020810190506107e7565b60008484015250505050565b6000610819826107c8565b61082381856107d3565b93506108338185602086016107e4565b61083c81610643565b840191505092915050565b6000819050919050565b61085a81610847565b82525050565b60008115159050919050565b61087581610860565b82525050565b600060a0820190508181036000830152610895818861080e565b905081810360208301526108a9818761080e565b905081810360408301526108bd818661080e565b90506108cc6060830185610851565b6108d9608083018461086c565b9695505050505050565b6000806000606084860312156108fc576108fb61062f565b5b600084013567ffffffffffffffff81111561091a57610919610634565b5b61092686828701610751565b935050602084013567ffffffffffffffff81111561094757610946610634565b5b61095386828701610751565b925050604084013567ffffffffffffffff81111561097457610973610634565b5b61098086828701610751565b9150509250925092565b600060208201905061099f600083018461086c565b92915050565b600081905092915050565b60006109bb826107c8565b6109c581856109a5565b93506109d58185602086016107e4565b80840191505092915050565b60006109ed82846109b0565b915081905092915050565b7f4e487b7100000000000000000000000000000000000000000000000000000000600052602260045260246000fd5b60006002820490506001821680610a3f57607f821691505b602082108103610a5257610a516109f8565b5b50919050565b7f436520646f63756d656e74206e27657869737465207061732064616e73206c6160008201527f20626c6f636b636861696e2e0000000000000000000000000000000000000000602082015250565b6000610ab4602c836107d3565b9150610abf82610a58565b604082019050919050565b60006020820190508181036000830152610ae381610aa7565b9050919050565b7f436c657320696e76616c696465732120696d706f737369626c65206427656e7260008201527f6567697374726572206c6520646f63756d656e742064616e73206c6120626c6f60208201527f636b636861696e2e000000000000000000000000000000000000000000000000604082015250565b6000610b6c6048836107d3565b9150610b7782610aea565b606082019050919050565b60006020820190508181036000830152610b9b81610b5f565b9050919050565b7f436520646f63756d656e74206578697374652064656a612064616e73206c612060008201527f626c6f636b636861696e2e000000000000000000000000000000000000000000602082015250565b6000610bfe602b836107d3565b9150610c0982610ba2565b604082019050919050565b60006020820190508181036000830152610c2d81610bf1565b9050919050565b60008190508160005260206000209050919050565b60006020601f8301049050919050565b600082821b905092915050565b600060088302610c967fffffffffffffffffffffffffffffffffffffffffffffffffffffffffffffffff82610c59565b610ca08683610c59565b95508019841693508086168417925050509392505050565b6000819050919050565b6000610cdd610cd8610cd384610847565b610cb8565b610847565b9050919050565b6000819050919050565b610cf783610cc2565b610d0b610d0382610ce4565b848454610c66565b825550505050565b600090565b610d20610d13565b610d2b818484610cee565b505050565b60005b82811015610d5357610d486000828401610d18565b600181019050610d33565b505050565b601f821115610da75782821115610da657610d7281610c34565b610d7b83610c49565b610d8485610c49565b6020861015610d9257600090505b808301610da182840382610d30565b505050505b5b505050565b600082821c905092915050565b6000610dca60001984600802610dac565b1980831691505092915050565b6000610de38383610db9565b9150826002028217905092915050565b610dfc826107c8565b67ffffffffffffffff811115610e1557610e14610654565b5b610e1f8254610a27565b610e2a828285610d58565b600060209050601f831160018114610e5d5760008415610e4b578287015190505b610e558582610dd7565b865550610ebd565b601f198416610e6b86610c34565b60005b82811015610e9357848901518255600182019150602085019450602081019050610e6e565b86831015610eb05784890151610eac601f891682610db9565b8355505b6001600288020188555050505b505050505050565b6000602082019050610eda6000830184610851565b9291505056fea26469706673582212200958f7c204558c6025e57e9d7d8974c3e255c70a35a65efacdfa2278f2a4aeb764736f6c63430008220033",
  "linkReferences": {},
  "deployedLinkReferences": {}
}